{
  "contractName": "ARDTokenVesting",
  "abi": [
    {
      "constant": false,
      "inputs": [],
      "name": "renounceOwnership",
      "outputs": [],
      "payable": false,
      "stateMutability": "nonpayable",
      "type": "function"
    },
    {
      "constant": true,
      "inputs": [],
      "name": "owner",
      "outputs": [
        {
          "name": "",
          "type": "address"
        }
      ],
      "payable": false,
      "stateMutability": "view",
      "type": "function"
    },
    {
      "constant": true,
      "inputs": [],
      "name": "isOwner",
      "outputs": [
        {
          "name": "",
          "type": "bool"
        }
      ],
      "payable": false,
      "stateMutability": "view",
      "type": "function"
    },
    {
      "constant": false,
      "inputs": [
        {
          "name": "newOwner",
          "type": "address"
        }
      ],
      "name": "transferOwnership",
      "outputs": [],
      "payable": false,
      "stateMutability": "nonpayable",
      "type": "function"
    },
    {
      "inputs": [
        {
          "name": "beneficiary",
          "type": "address"
        },
        {
          "name": "duration",
          "type": "uint256"
        }
      ],
      "payable": false,
      "stateMutability": "nonpayable",
      "type": "constructor"
    },
    {
      "anonymous": false,
      "inputs": [
        {
          "indexed": false,
          "name": "token",
          "type": "address"
        },
        {
          "indexed": false,
          "name": "amount",
          "type": "uint256"
        }
      ],
      "name": "TokensReleased",
      "type": "event"
    },
    {
      "anonymous": false,
      "inputs": [
        {
          "indexed": false,
          "name": "newBeneficiary",
          "type": "address"
        }
      ],
      "name": "BeneficiaryChanged",
      "type": "event"
    },
    {
      "anonymous": false,
      "inputs": [
        {
          "indexed": true,
          "name": "previousOwner",
          "type": "address"
        },
        {
          "indexed": true,
          "name": "newOwner",
          "type": "address"
        }
      ],
      "name": "OwnershipTransferred",
      "type": "event"
    },
    {
      "constant": true,
      "inputs": [],
      "name": "beneficiary",
      "outputs": [
        {
          "name": "",
          "type": "address"
        }
      ],
      "payable": false,
      "stateMutability": "view",
      "type": "function"
    },
    {
      "constant": false,
      "inputs": [
        {
          "name": "newBeneficiary",
          "type": "address"
        }
      ],
      "name": "changeBeneficiary",
      "outputs": [],
      "payable": false,
      "stateMutability": "nonpayable",
      "type": "function"
    },
    {
      "constant": false,
      "inputs": [],
      "name": "startVesting",
      "outputs": [],
      "payable": false,
      "stateMutability": "nonpayable",
      "type": "function"
    },
    {
      "constant": true,
      "inputs": [],
      "name": "start",
      "outputs": [
        {
          "name": "",
          "type": "uint256"
        }
      ],
      "payable": false,
      "stateMutability": "view",
      "type": "function"
    },
    {
      "constant": true,
      "inputs": [],
      "name": "duration",
      "outputs": [
        {
          "name": "",
          "type": "uint256"
        }
      ],
      "payable": false,
      "stateMutability": "view",
      "type": "function"
    },
    {
      "constant": true,
      "inputs": [
        {
          "name": "token",
          "type": "address"
        }
      ],
      "name": "released",
      "outputs": [
        {
          "name": "",
          "type": "uint256"
        }
      ],
      "payable": false,
      "stateMutability": "view",
      "type": "function"
    },
    {
      "constant": false,
      "inputs": [
        {
          "name": "token",
          "type": "address"
        }
      ],
      "name": "release",
      "outputs": [],
      "payable": false,
      "stateMutability": "nonpayable",
      "type": "function"
    }
  ],
  "bytecode": "0x608060405234801561001057600080fd5b50604051604080610f6f8339810180604052604081101561003057600080fd5b810190808051906020019092919080519060200190929190505050336000806101000a81548173ffffffffffffffffffffffffffffffffffffffff021916908373ffffffffffffffffffffffffffffffffffffffff1602179055506000809054906101000a900473ffffffffffffffffffffffffffffffffffffffff1673ffffffffffffffffffffffffffffffffffffffff16600073ffffffffffffffffffffffffffffffffffffffff167f8be0079c531659141344cd1fd0a4f28419497f9722a3daafe3b4186f6b6457e060405160405180910390a3600073ffffffffffffffffffffffffffffffffffffffff168273ffffffffffffffffffffffffffffffffffffffff161415151561014357600080fd5b60008111151561015257600080fd5b81600160006101000a81548173ffffffffffffffffffffffffffffffffffffffff021916908373ffffffffffffffffffffffffffffffffffffffff160217905550806003819055505050610dc4806101ab6000396000f3fe608060405234801561001057600080fd5b50600436106100c6576000357c0100000000000000000000000000000000000000000000000000000000900480638f32d59b1161008e5780638f32d59b146101cb5780639852595c146101ed578063be9a655514610245578063dc07065714610263578063deb36e32146102a7578063f2fde38b146102b1576100c6565b80630fb5a6b4146100cb57806319165587146100e957806338af3eed1461012d578063715018a6146101775780638da5cb5b14610181575b600080fd5b6100d36102f5565b6040518082815260200191505060405180910390f35b61012b600480360360208110156100ff57600080fd5b81019080803573ffffffffffffffffffffffffffffffffffffffff1690602001909291905050506102ff565b005b610135610487565b604051808273ffffffffffffffffffffffffffffffffffffffff1673ffffffffffffffffffffffffffffffffffffffff16815260200191505060405180910390f35b61017f6104b1565b005b610189610583565b604051808273ffffffffffffffffffffffffffffffffffffffff1673ffffffffffffffffffffffffffffffffffffffff16815260200191505060405180910390f35b6101d36105ac565b604051808215151515815260200191505060405180910390f35b61022f6004803603602081101561020357600080fd5b81019080803573ffffffffffffffffffffffffffffffffffffffff169060200190929190505050610603565b6040518082815260200191505060405180910390f35b61024d61064c565b6040518082815260200191505060405180910390f35b6102a56004803603602081101561027957600080fd5b81019080803573ffffffffffffffffffffffffffffffffffffffff169060200190929190505050610656565b005b6102af61074c565b005b6102f3600480360360208110156102c757600080fd5b81019080803573ffffffffffffffffffffffffffffffffffffffff16906020019092919050505061079f565b005b6000600354905090565b600460009054906101000a900460ff16151561031a57600080fd5b6000610325826107be565b905060008111151561033657600080fd5b61038881600560008573ffffffffffffffffffffffffffffffffffffffff1673ffffffffffffffffffffffffffffffffffffffff1681526020019081526020016000205461082190919063ffffffff16565b600560008473ffffffffffffffffffffffffffffffffffffffff1673ffffffffffffffffffffffffffffffffffffffff16815260200190815260200160002081905550610418600160009054906101000a900473ffffffffffffffffffffffffffffffffffffffff16828473ffffffffffffffffffffffffffffffffffffffff166108429092919063ffffffff16565b7fc7798891864187665ac6dd119286e44ec13f014527aeeb2b8eb3fd413df931798282604051808373ffffffffffffffffffffffffffffffffffffffff1673ffffffffffffffffffffffffffffffffffffffff1681526020018281526020019250505060405180910390a15050565b6000600160009054906101000a900473ffffffffffffffffffffffffffffffffffffffff16905090565b6104b96105ac565b15156104c457600080fd5b600073ffffffffffffffffffffffffffffffffffffffff166000809054906101000a900473ffffffffffffffffffffffffffffffffffffffff1673ffffffffffffffffffffffffffffffffffffffff167f8be0079c531659141344cd1fd0a4f28419497f9722a3daafe3b4186f6b6457e060405160405180910390a360008060006101000a81548173ffffffffffffffffffffffffffffffffffffffff021916908373ffffffffffffffffffffffffffffffffffffffff160217905550565b60008060009054906101000a900473ffffffffffffffffffffffffffffffffffffffff16905090565b60008060009054906101000a900473ffffffffffffffffffffffffffffffffffffffff1673ffffffffffffffffffffffffffffffffffffffff163373ffffffffffffffffffffffffffffffffffffffff1614905090565b6000600560008373ffffffffffffffffffffffffffffffffffffffff1673ffffffffffffffffffffffffffffffffffffffff168152602001908152602001600020549050919050565b6000600254905090565b61065e6105ac565b151561066957600080fd5b600073ffffffffffffffffffffffffffffffffffffffff168173ffffffffffffffffffffffffffffffffffffffff16141515156106a557600080fd5b80600160006101000a81548173ffffffffffffffffffffffffffffffffffffffff021916908373ffffffffffffffffffffffffffffffffffffffff1602179055507f373c72efabe4ef3e552ff77838be729f3bc3d8c586df0012902d1baa2377fa1d81604051808273ffffffffffffffffffffffffffffffffffffffff1673ffffffffffffffffffffffffffffffffffffffff16815260200191505060405180910390a150565b6107546105ac565b151561075f57600080fd5b600460009054906101000a900460ff1615151561077b57600080fd5b426002819055506001600460006101000a81548160ff021916908315150217905550565b6107a76105ac565b15156107b257600080fd5b6107bb8161092f565b50565b600061081a600560008473ffffffffffffffffffffffffffffffffffffffff1673ffffffffffffffffffffffffffffffffffffffff1681526020019081526020016000205461080c84610a29565b610bc690919063ffffffff16565b9050919050565b600080828401905083811015151561083857600080fd5b8091505092915050565b61092a838473ffffffffffffffffffffffffffffffffffffffff1663a9059cbb90507c0100000000000000000000000000000000000000000000000000000000028484604051602401808373ffffffffffffffffffffffffffffffffffffffff1673ffffffffffffffffffffffffffffffffffffffff16815260200182815260200192505050604051602081830303815290604052907bffffffffffffffffffffffffffffffffffffffffffffffffffffffff19166020820180517bffffffffffffffffffffffffffffffffffffffffffffffffffffffff8381831617835250505050610be8565b505050565b600073ffffffffffffffffffffffffffffffffffffffff168173ffffffffffffffffffffffffffffffffffffffff161415151561096b57600080fd5b8073ffffffffffffffffffffffffffffffffffffffff166000809054906101000a900473ffffffffffffffffffffffffffffffffffffffff1673ffffffffffffffffffffffffffffffffffffffff167f8be0079c531659141344cd1fd0a4f28419497f9722a3daafe3b4186f6b6457e060405160405180910390a3806000806101000a81548173ffffffffffffffffffffffffffffffffffffffff021916908373ffffffffffffffffffffffffffffffffffffffff16021790555050565b6000808273ffffffffffffffffffffffffffffffffffffffff166370a08231306040518263ffffffff167c0100000000000000000000000000000000000000000000000000000000028152600401808273ffffffffffffffffffffffffffffffffffffffff1673ffffffffffffffffffffffffffffffffffffffff16815260200191505060206040518083038186803b158015610ac557600080fd5b505afa158015610ad9573d6000803e3d6000fd5b505050506040513d6020811015610aef57600080fd5b810190808051906020019092919050505090506000610b56600560008673ffffffffffffffffffffffffffffffffffffffff1673ffffffffffffffffffffffffffffffffffffffff168152602001908152602001600020548361082190919063ffffffff16565b9050610b6f60035460025461082190919063ffffffff16565b42101515610b81578092505050610bc1565b610bbc600354610bae610b9f60025442610bc690919063ffffffff16565b84610d1d90919063ffffffff16565b610d5b90919063ffffffff16565b925050505b919050565b6000828211151515610bd757600080fd5b600082840390508091505092915050565b610c078273ffffffffffffffffffffffffffffffffffffffff16610d85565b1515610c1257600080fd5b600060608373ffffffffffffffffffffffffffffffffffffffff16836040518082805190602001908083835b602083101515610c635780518252602082019150602081019050602083039250610c3e565b6001836020036101000a0380198251168184511680821785525050505050509050019150506000604051808303816000865af19150503d8060008114610cc5576040519150601f19603f3d011682016040523d82523d6000602084013e610cca565b606091505b5091509150811515610cdb57600080fd5b600081511115610d1757808060200190516020811015610cfa57600080fd5b81019080805190602001909291905050501515610d1657600080fd5b5b50505050565b600080831415610d305760009050610d55565b60008284029050828482811515610d4357fe5b04141515610d5057600080fd5b809150505b92915050565b60008082111515610d6b57600080fd5b60008284811515610d7857fe5b0490508091505092915050565b600080823b90506000811191505091905056fea165627a7a72305820e5133e02d3b933ea964ea407e070256bedc51e9a4b08dbd12d8ed0314d3b3d850029",
  "source": "pragma solidity ^0.5.2;\n\nimport \"openzeppelin-solidity/contracts/token/ERC20/SafeERC20.sol\";\nimport \"openzeppelin-solidity/contracts/ownership/Ownable.sol\";\nimport \"openzeppelin-solidity/contracts/math/SafeMath.sol\";\n\n/**\n * @title ARDTokenVesting\n * @dev A token holder contract that can release its ARD token balance gradually like a\n * typical vesting scheme. startVesting() function needs to be called by owner to set start time.\n*/\ncontract ARDTokenVesting is Ownable {\n\n    using SafeMath for uint256;\n    using SafeERC20 for IERC20;\n\n    event TokensReleased(address token, uint256 amount);\n    event BeneficiaryChanged(address newBeneficiary);\n\n    // beneficiary of tokens after they are released\n    address private _beneficiary;\n\n    // Durations and timestamps are expressed in UNIX time, the same units as block.timestamp.\n    uint256 private _start;\n    uint256 private _duration;\n    bool private _hasStarted;\n\n    mapping (address => uint256) private _released;\n\n    modifier hasVestingStarted() {\n        require(_hasStarted);\n        _;\n    }\n\n    /**\n     * @dev Creates a vesting contract that vests its balance of any ERC20 token to the\n     * beneficiary, gradually in a linear fashion until start + duration. By then all\n     * of the balance will have vested.\n     * @param beneficiary address of the beneficiary to whom vested tokens are transferred\n     * @param duration duration in seconds of the period in which the tokens will vest\n    */\n    constructor (address beneficiary,  uint256 duration) public {\n        require(beneficiary != address(0));\n        require(duration > 0);\n\n        _beneficiary = beneficiary;\n        _duration = duration;\n    }\n\n    /**\n     * @return the beneficiary of the tokens.\n     */\n    function beneficiary() public view returns (address) {\n        return _beneficiary;\n    }\n\n    /**\n     * Changes beneficiary address\n     */\n    function changeBeneficiary(address newBeneficiary) public onlyOwner{\n        require(newBeneficiary != address(0));\n        _beneficiary = newBeneficiary;\n        emit BeneficiaryChanged(newBeneficiary);\n    }\n\n    /**\n     * Starts the token vesting process.\n     */\n    function startVesting() public onlyOwner () {\n        require(!_hasStarted);\n        _start = now;\n        _hasStarted = true;\n    }\n\n    /**\n     * @return the start time of the token vesting.\n     */\n    function start() public view returns (uint256) {\n        return _start;\n    }\n\n    /**\n     * @return the duration of the token vesting.\n     */\n    function duration() public view returns (uint256) {\n        return _duration;\n    }\n\n\n    /**\n     * @return the amount of the token released.\n     */\n    function released(address token) public view returns (uint256) {\n        return _released[token];\n    }\n\n    /**\n     * @notice Transfers vested tokens to beneficiary.\n     * @param token ERC20 token which is being vested\n     */\n    function release(IERC20 token) public hasVestingStarted{\n        uint256 unreleased = _releasableAmount(token);\n\n        require(unreleased > 0);\n\n        _released[address(token)] = _released[address(token)].add(unreleased);\n\n        token.safeTransfer(_beneficiary, unreleased);\n\n        emit TokensReleased(address(token), unreleased);\n    }\n\n    /**\n     * @dev Calculates the amount that has already vested but hasn't been released yet.\n     * @param token ERC20 token which is being vested\n     */\n    function _releasableAmount(IERC20 token) private view returns (uint256) {\n        return _vestedAmount(token).sub(_released[address(token)]);\n    }\n\n    /**\n     * @dev Calculates the amount that has already vested.\n     * @param token ERC20 token which is being vested\n     */\n    function _vestedAmount(IERC20 token) private view returns (uint256) {\n        uint256 currentBalance = token.balanceOf(address(this));\n        uint256 totalBalance = currentBalance.add(_released[address(token)]);\n\n        if (block.timestamp >= _start.add(_duration)) {\n            return totalBalance;\n        } else {\n            return totalBalance.mul(block.timestamp.sub(_start)).div(_duration);\n        }\n    }\n}\n",
  "sourcePath": "/Users/markfrance/ard-token/contracts/ARDTokenVesting.sol",
  "compiler": {
    "name": "solc",
    "version": "0.5.2+commit.1df8f40c.Emscripten.clang"
  },
  "schemaVersion": "3.0.3",
  "updatedAt": "2019-03-19T17:45:24.209Z",
  "devdoc": {
    "details": "A token holder contract that can release its ARD token balance gradually like a typical vesting scheme. startVesting() function needs to be called by owner to set start time.",
    "methods": {
      "beneficiary()": {
        "return": "the beneficiary of the tokens."
      },
      "constructor": {
        "details": "Creates a vesting contract that vests its balance of any ERC20 token to the beneficiary, gradually in a linear fashion until start + duration. By then all of the balance will have vested.",
        "params": {
          "beneficiary": "address of the beneficiary to whom vested tokens are transferred",
          "duration": "duration in seconds of the period in which the tokens will vest"
        }
      },
      "duration()": {
        "return": "the duration of the token vesting."
      },
      "isOwner()": {
        "return": "true if `msg.sender` is the owner of the contract."
      },
      "owner()": {
        "return": "the address of the owner."
      },
      "release(address)": {
        "params": {
          "token": "ERC20 token which is being vested"
        }
      },
      "released(address)": {
        "return": "the amount of the token released."
      },
      "renounceOwnership()": {
        "details": "Allows the current owner to relinquish control of the contract. It will not be possible to call the functions with the `onlyOwner` modifier anymore."
      },
      "start()": {
        "return": "the start time of the token vesting."
      },
      "transferOwnership(address)": {
        "details": "Allows the current owner to transfer control of the contract to a newOwner.",
        "params": {
          "newOwner": "The address to transfer ownership to."
        }
      }
    },
    "title": "ARDTokenVesting"
  },
  "userdoc": {
    "methods": {
      "changeBeneficiary(address)": {
        "notice": "Changes beneficiary address"
      },
      "release(address)": {
        "notice": "Transfers vested tokens to beneficiary."
      },
      "renounceOwnership()": {
        "notice": "Renouncing ownership will leave the contract without an owner, thereby removing any functionality that is only available to the owner."
      },
      "startVesting()": {
        "notice": "Starts the token vesting process."
      }
    }
  }
}